{
  "_format": "hh-sol-artifact-1",
  "contractName": "ReservePool",
  "sourceName": "contracts/ReservePool.sol",
  "abi": [
    {
      "inputs": [
        {
          "internalType": "address",
          "name": "_platformSigner",
          "type": "address"
        }
      ],
      "stateMutability": "nonpayable",
      "type": "constructor"
    },
    {
      "anonymous": false,
      "inputs": [
        {
          "indexed": true,
          "internalType": "bytes32",
          "name": "claimId",
          "type": "bytes32"
        },
        {
          "indexed": true,
          "internalType": "address",
          "name": "subscription",
          "type": "address"
        },
        {
          "indexed": true,
          "internalType": "address",
          "name": "provider",
          "type": "address"
        },
        {
          "indexed": false,
          "internalType": "uint256",
          "name": "amount",
          "type": "uint256"
        }
      ],
      "name": "ClaimPaid",
      "type": "event"
    },
    {
      "anonymous": false,
      "inputs": [
        {
          "indexed": true,
          "internalType": "address",
          "name": "user",
          "type": "address"
        },
        {
          "indexed": true,
          "internalType": "address",
          "name": "token",
          "type": "address"
        },
        {
          "indexed": false,
          "internalType": "uint256",
          "name": "amount",
          "type": "uint256"
        },
        {
          "indexed": true,
          "internalType": "address",
          "name": "underwriter",
          "type": "address"
        }
      ],
      "name": "CreditLineGranted",
      "type": "event"
    },
    {
      "anonymous": false,
      "inputs": [
        {
          "indexed": true,
          "internalType": "address",
          "name": "previousOwner",
          "type": "address"
        },
        {
          "indexed": true,
          "internalType": "address",
          "name": "newOwner",
          "type": "address"
        }
      ],
      "name": "OwnershipTransferred",
      "type": "event"
    },
    {
      "anonymous": false,
      "inputs": [
        {
          "indexed": false,
          "internalType": "address",
          "name": "account",
          "type": "address"
        }
      ],
      "name": "Paused",
      "type": "event"
    },
    {
      "anonymous": false,
      "inputs": [
        {
          "indexed": true,
          "internalType": "address",
          "name": "user",
          "type": "address"
        },
        {
          "indexed": true,
          "internalType": "address",
          "name": "token",
          "type": "address"
        },
        {
          "indexed": false,
          "internalType": "uint256",
          "name": "amount",
          "type": "uint256"
        },
        {
          "indexed": false,
          "internalType": "uint256",
          "name": "fee",
          "type": "uint256"
        }
      ],
      "name": "RepaymentReceived",
      "type": "event"
    },
    {
      "anonymous": false,
      "inputs": [
        {
          "indexed": true,
          "internalType": "address",
          "name": "underwriter",
          "type": "address"
        },
        {
          "indexed": true,
          "internalType": "address",
          "name": "token",
          "type": "address"
        },
        {
          "indexed": false,
          "internalType": "uint256",
          "name": "amount",
          "type": "uint256"
        }
      ],
      "name": "RewardsDistributed",
      "type": "event"
    },
    {
      "anonymous": false,
      "inputs": [
        {
          "indexed": true,
          "internalType": "address",
          "name": "underwriter",
          "type": "address"
        },
        {
          "indexed": true,
          "internalType": "address",
          "name": "token",
          "type": "address"
        },
        {
          "indexed": false,
          "internalType": "uint256",
          "name": "amount",
          "type": "uint256"
        },
        {
          "indexed": false,
          "internalType": "uint256",
          "name": "utilizationCap",
          "type": "uint256"
        }
      ],
      "name": "StakeAdded",
      "type": "event"
    },
    {
      "anonymous": false,
      "inputs": [
        {
          "indexed": true,
          "internalType": "address",
          "name": "underwriter",
          "type": "address"
        },
        {
          "indexed": true,
          "internalType": "address",
          "name": "token",
          "type": "address"
        },
        {
          "indexed": false,
          "internalType": "uint256",
          "name": "amount",
          "type": "uint256"
        }
      ],
      "name": "StakeRemoved",
      "type": "event"
    },
    {
      "anonymous": false,
      "inputs": [
        {
          "indexed": false,
          "internalType": "address",
          "name": "account",
          "type": "address"
        }
      ],
      "name": "Unpaused",
      "type": "event"
    },
    {
      "anonymous": false,
      "inputs": [
        {
          "indexed": true,
          "internalType": "address",
          "name": "token",
          "type": "address"
        },
        {
          "indexed": false,
          "internalType": "uint256",
          "name": "oldRate",
          "type": "uint256"
        },
        {
          "indexed": false,
          "internalType": "uint256",
          "name": "newRate",
          "type": "uint256"
        }
      ],
      "name": "UtilizationRateUpdated",
      "type": "event"
    },
    {
      "inputs": [],
      "name": "FEE_DENOMINATOR",
      "outputs": [
        {
          "internalType": "uint256",
          "name": "",
          "type": "uint256"
        }
      ],
      "stateMutability": "view",
      "type": "function"
    },
    {
      "inputs": [],
      "name": "MAX_UTILIZATION_RATE",
      "outputs": [
        {
          "internalType": "uint256",
          "name": "",
          "type": "uint256"
        }
      ],
      "stateMutability": "view",
      "type": "function"
    },
    {
      "inputs": [
        {
          "internalType": "address",
          "name": "token",
          "type": "address"
        },
        {
          "internalType": "uint256",
          "name": "amount",
          "type": "uint256"
        },
        {
          "internalType": "uint256",
          "name": "utilizationCap",
          "type": "uint256"
        }
      ],
      "name": "addStake",
      "outputs": [],
      "stateMutability": "nonpayable",
      "type": "function"
    },
    {
      "inputs": [
        {
          "internalType": "address",
          "name": "subscription",
          "type": "address"
        },
        {
          "internalType": "bool",
          "name": "authorized",
          "type": "bool"
        }
      ],
      "name": "authorizeSubscription",
      "outputs": [],
      "stateMutability": "nonpayable",
      "type": "function"
    },
    {
      "inputs": [
        {
          "internalType": "address",
          "name": "",
          "type": "address"
        }
      ],
      "name": "authorizedSubscriptions",
      "outputs": [
        {
          "internalType": "bool",
          "name": "",
          "type": "bool"
        }
      ],
      "stateMutability": "view",
      "type": "function"
    },
    {
      "inputs": [
        {
          "internalType": "address",
          "name": "token",
          "type": "address"
        }
      ],
      "name": "claimRewards",
      "outputs": [],
      "stateMutability": "nonpayable",
      "type": "function"
    },
    {
      "inputs": [],
      "name": "emergencyPause",
      "outputs": [],
      "stateMutability": "nonpayable",
      "type": "function"
    },
    {
      "inputs": [],
      "name": "emergencyUnpause",
      "outputs": [],
      "stateMutability": "nonpayable",
      "type": "function"
    },
    {
      "inputs": [
        {
          "internalType": "address",
          "name": "token",
          "type": "address"
        },
        {
          "internalType": "uint256",
          "name": "amount",
          "type": "uint256"
        }
      ],
      "name": "emergencyWithdraw",
      "outputs": [],
      "stateMutability": "nonpayable",
      "type": "function"
    },
    {
      "inputs": [
        {
          "internalType": "address",
          "name": "token",
          "type": "address"
        }
      ],
      "name": "getPoolInfo",
      "outputs": [
        {
          "components": [
            {
              "internalType": "uint256",
              "name": "totalStaked",
              "type": "uint256"
            },
            {
              "internalType": "uint256",
              "name": "totalUtilized",
              "type": "uint256"
            },
            {
              "internalType": "uint256",
              "name": "totalRewards",
              "type": "uint256"
            },
            {
              "internalType": "uint256",
              "name": "utilizationRate",
              "type": "uint256"
            },
            {
              "internalType": "uint256",
              "name": "maxUtilizationRate",
              "type": "uint256"
            }
          ],
          "internalType": "struct ReservePool.PoolInfo",
          "name": "",
          "type": "tuple"
        }
      ],
      "stateMutability": "view",
      "type": "function"
    },
    {
      "inputs": [
        {
          "internalType": "address",
          "name": "token",
          "type": "address"
        }
      ],
      "name": "getPoolStats",
      "outputs": [
        {
          "internalType": "uint256",
          "name": "totalStaked",
          "type": "uint256"
        },
        {
          "internalType": "uint256",
          "name": "totalUtilized",
          "type": "uint256"
        },
        {
          "internalType": "uint256",
          "name": "utilizationRate",
          "type": "uint256"
        },
        {
          "internalType": "uint256",
          "name": "maxUtilizationRate",
          "type": "uint256"
        },
        {
          "internalType": "uint256",
          "name": "availableCapacity",
          "type": "uint256"
        }
      ],
      "stateMutability": "view",
      "type": "function"
    },
    {
      "inputs": [
        {
          "internalType": "address",
          "name": "token",
          "type": "address"
        },
        {
          "internalType": "address",
          "name": "underwriter",
          "type": "address"
        }
      ],
      "name": "getUnderwriterInfo",
      "outputs": [
        {
          "components": [
            {
              "internalType": "uint256",
              "name": "stakeAmount",
              "type": "uint256"
            },
            {
              "internalType": "uint256",
              "name": "utilizationCap",
              "type": "uint256"
            },
            {
              "internalType": "uint256",
              "name": "currentUtilization",
              "type": "uint256"
            },
            {
              "internalType": "bool",
              "name": "active",
              "type": "bool"
            },
            {
              "internalType": "uint256",
              "name": "rewardAccumulated",
              "type": "uint256"
            }
          ],
          "internalType": "struct IReservePool.UnderwriterInfo",
          "name": "",
          "type": "tuple"
        }
      ],
      "stateMutability": "view",
      "type": "function"
    },
    {
      "inputs": [
        {
          "internalType": "address",
          "name": "user",
          "type": "address"
        },
        {
          "internalType": "address",
          "name": "token",
          "type": "address"
        }
      ],
      "name": "getUnderwritingCapacity",
      "outputs": [
        {
          "internalType": "uint256",
          "name": "",
          "type": "uint256"
        }
      ],
      "stateMutability": "view",
      "type": "function"
    },
    {
      "inputs": [
        {
          "internalType": "address",
          "name": "user",
          "type": "address"
        },
        {
          "internalType": "address",
          "name": "token",
          "type": "address"
        }
      ],
      "name": "getUserDebt",
      "outputs": [
        {
          "internalType": "uint256",
          "name": "",
          "type": "uint256"
        }
      ],
      "stateMutability": "view",
      "type": "function"
    },
    {
      "inputs": [
        {
          "internalType": "address",
          "name": "user",
          "type": "address"
        },
        {
          "internalType": "address",
          "name": "token",
          "type": "address"
        },
        {
          "internalType": "uint256",
          "name": "amount",
          "type": "uint256"
        }
      ],
      "name": "grantCreditLine",
      "outputs": [],
      "stateMutability": "nonpayable",
      "type": "function"
    },
    {
      "inputs": [
        {
          "internalType": "address",
          "name": "subscription",
          "type": "address"
        }
      ],
      "name": "isSubscriptionAuthorized",
      "outputs": [
        {
          "internalType": "bool",
          "name": "",
          "type": "bool"
        }
      ],
      "stateMutability": "view",
      "type": "function"
    },
    {
      "inputs": [],
      "name": "owner",
      "outputs": [
        {
          "internalType": "address",
          "name": "",
          "type": "address"
        }
      ],
      "stateMutability": "view",
      "type": "function"
    },
    {
      "inputs": [],
      "name": "paused",
      "outputs": [
        {
          "internalType": "bool",
          "name": "",
          "type": "bool"
        }
      ],
      "stateMutability": "view",
      "type": "function"
    },
    {
      "inputs": [
        {
          "internalType": "address",
          "name": "subscription",
          "type": "address"
        },
        {
          "internalType": "address",
          "name": "provider",
          "type": "address"
        },
        {
          "internalType": "address",
          "name": "token",
          "type": "address"
        },
        {
          "internalType": "uint256",
          "name": "amount",
          "type": "uint256"
        },
        {
          "internalType": "bytes",
          "name": "claimProof",
          "type": "bytes"
        },
        {
          "internalType": "bytes",
          "name": "platformSig",
          "type": "bytes"
        }
      ],
      "name": "payClaim",
      "outputs": [
        {
          "internalType": "bool",
          "name": "",
          "type": "bool"
        }
      ],
      "stateMutability": "nonpayable",
      "type": "function"
    },
    {
      "inputs": [],
      "name": "platformFee",
      "outputs": [
        {
          "internalType": "uint256",
          "name": "",
          "type": "uint256"
        }
      ],
      "stateMutability": "view",
      "type": "function"
    },
    {
      "inputs": [],
      "name": "platformSigner",
      "outputs": [
        {
          "internalType": "address",
          "name": "",
          "type": "address"
        }
      ],
      "stateMutability": "view",
      "type": "function"
    },
    {
      "inputs": [
        {
          "internalType": "address",
          "name": "",
          "type": "address"
        }
      ],
      "name": "pools",
      "outputs": [
        {
          "internalType": "uint256",
          "name": "totalStaked",
          "type": "uint256"
        },
        {
          "internalType": "uint256",
          "name": "totalUtilized",
          "type": "uint256"
        },
        {
          "internalType": "uint256",
          "name": "totalRewards",
          "type": "uint256"
        },
        {
          "internalType": "uint256",
          "name": "utilizationRate",
          "type": "uint256"
        },
        {
          "internalType": "uint256",
          "name": "maxUtilizationRate",
          "type": "uint256"
        }
      ],
      "stateMutability": "view",
      "type": "function"
    },
    {
      "inputs": [
        {
          "internalType": "bytes32",
          "name": "",
          "type": "bytes32"
        }
      ],
      "name": "processedClaims",
      "outputs": [
        {
          "internalType": "bool",
          "name": "",
          "type": "bool"
        }
      ],
      "stateMutability": "view",
      "type": "function"
    },
    {
      "inputs": [
        {
          "internalType": "address",
          "name": "token",
          "type": "address"
        },
        {
          "internalType": "uint256",
          "name": "amount",
          "type": "uint256"
        }
      ],
      "name": "removeStake",
      "outputs": [],
      "stateMutability": "nonpayable",
      "type": "function"
    },
    {
      "inputs": [],
      "name": "renounceOwnership",
      "outputs": [],
      "stateMutability": "nonpayable",
      "type": "function"
    },
    {
      "inputs": [
        {
          "internalType": "address",
          "name": "user",
          "type": "address"
        },
        {
          "internalType": "address",
          "name": "token",
          "type": "address"
        },
        {
          "internalType": "uint256",
          "name": "amount",
          "type": "uint256"
        },
        {
          "internalType": "uint256",
          "name": "fee",
          "type": "uint256"
        }
      ],
      "name": "repayFromUser",
      "outputs": [
        {
          "internalType": "bool",
          "name": "",
          "type": "bool"
        }
      ],
      "stateMutability": "nonpayable",
      "type": "function"
    },
    {
      "inputs": [
        {
          "internalType": "address",
          "name": "_signer",
          "type": "address"
        }
      ],
      "name": "setPlatformSigner",
      "outputs": [],
      "stateMutability": "nonpayable",
      "type": "function"
    },
    {
      "inputs": [
        {
          "internalType": "address",
          "name": "token",
          "type": "address"
        },
        {
          "internalType": "uint256",
          "name": "maxRate",
          "type": "uint256"
        }
      ],
      "name": "setPoolMaxUtilizationRate",
      "outputs": [],
      "stateMutability": "nonpayable",
      "type": "function"
    },
    {
      "inputs": [
        {
          "internalType": "address",
          "name": "_factory",
          "type": "address"
        }
      ],
      "name": "setSubscriptionFactory",
      "outputs": [],
      "stateMutability": "nonpayable",
      "type": "function"
    },
    {
      "inputs": [],
      "name": "subscriptionFactory",
      "outputs": [
        {
          "internalType": "address",
          "name": "",
          "type": "address"
        }
      ],
      "stateMutability": "view",
      "type": "function"
    },
    {
      "inputs": [
        {
          "internalType": "address",
          "name": "newOwner",
          "type": "address"
        }
      ],
      "name": "transferOwnership",
      "outputs": [],
      "stateMutability": "nonpayable",
      "type": "function"
    },
    {
      "inputs": [
        {
          "internalType": "address",
          "name": "",
          "type": "address"
        },
        {
          "internalType": "address",
          "name": "",
          "type": "address"
        }
      ],
      "name": "underwriters",
      "outputs": [
        {
          "internalType": "uint256",
          "name": "stakeAmount",
          "type": "uint256"
        },
        {
          "internalType": "uint256",
          "name": "utilizationCap",
          "type": "uint256"
        },
        {
          "internalType": "uint256",
          "name": "currentUtilization",
          "type": "uint256"
        },
        {
          "internalType": "bool",
          "name": "active",
          "type": "bool"
        },
        {
          "internalType": "uint256",
          "name": "rewardAccumulated",
          "type": "uint256"
        }
      ],
      "stateMutability": "view",
      "type": "function"
    },
    {
      "inputs": [],
      "name": "underwritingFee",
      "outputs": [
        {
          "internalType": "uint256",
          "name": "",
          "type": "uint256"
        }
      ],
      "stateMutability": "view",
      "type": "function"
    },
    {
      "inputs": [
        {
          "internalType": "uint256",
          "name": "_underwritingFee",
          "type": "uint256"
        },
        {
          "internalType": "uint256",
          "name": "_platformFee",
          "type": "uint256"
        }
      ],
      "name": "updateFees",
      "outputs": [],
      "stateMutability": "nonpayable",
      "type": "function"
    },
    {
      "inputs": [
        {
          "internalType": "address",
          "name": "",
          "type": "address"
        },
        {
          "internalType": "address",
          "name": "",
          "type": "address"
        }
      ],
      "name": "userCreditLines",
      "outputs": [
        {
          "internalType": "uint256",
          "name": "",
          "type": "uint256"
        }
      ],
      "stateMutability": "view",
      "type": "function"
    }
  ],
  "bytecode": "0x608060405261012c60085560646009553480156200001c57600080fd5b50604051620023d8380380620023d88339810160408190526200003f9162000129565b6200004a33620000d9565b600180556002805460ff191690556001600160a01b038116620000b35760405162461bcd60e51b815260206004820152601760248201527f496e76616c696420706c6174666f726d207369676e6572000000000000000000604482015260640160405180910390fd5b600b80546001600160a01b0319166001600160a01b03929092169190911790556200015b565b600080546001600160a01b038381166001600160a01b0319831681178455604051919092169283917f8be0079c531659141344cd1fd0a4f28419497f9722a3daafe3b4186f6b6457e09190a35050565b6000602082840312156200013c57600080fd5b81516001600160a01b03811681146200015457600080fd5b9392505050565b61226d806200016b6000396000f3fe608060405234801561001057600080fd5b50600436106102115760003560e01c80638ae9759511610125578063b778bb4a116100ad578063d6847e9f1161007c578063d6847e9f146105b0578063d73792a9146105b9578063ef5cfb8c146105c2578063f2fde38b146105d5578063f6a17e43146105e857600080fd5b8063b778bb4a14610564578063ba3566fe14610577578063ba92ddbc1461058a578063cd8a83d31461059d57600080fd5b8063a4063dbc116100f4578063a4063dbc14610487578063a441b7d6146104c5578063a7ce82c8146104ce578063aa592ed814610525578063b338980c1461055157600080fd5b80638ae97595146104285780638da5cb5b1461046357806395ccea6714610474578063a2a00ed61461036857600080fd5b8063624f0cf6116101a85780637000e241116101775780637000e241146103b4578063715018a6146103c757806377062dce146103cf5780637d548c64146103f257806380dd507e1461041557600080fd5b8063624f0cf61461036857806368ce7d8a1461037b578063692a81bd1461038e5780636db79437146103a157600080fd5b806349e12b81116101e457806349e12b81146103165780634a4e3bd51461034157806351858e27146103495780635c975abb1461035157600080fd5b806306bfa938146102165780630fb003cd1461027457806326232a2e146102ea5780633b79c44f14610301575b600080fd5b610229610224366004611e1d565b610613565b60405161026b9190600060a082019050825182526020830151602083015260408301516040830152606083015160608301526080830151608083015292915050565b60405180910390f35b6102c0610282366004611e3f565b600360208181526000938452604080852090915291835291208054600182015460028301549383015460049093015491939092909160ff9091169085565b6040805195865260208601949094529284019190915215156060830152608082015260a00161026b565b6102f360095481565b60405190815260200161026b565b61031461030f366004611e1d565b61069a565b005b600a54610329906001600160a01b031681565b6040516001600160a01b03909116815260200161026b565b610314610718565b61031461072a565b60025460ff165b604051901515815260200161026b565b6102f3610376366004611e3f565b61073a565b610314610389366004611e72565b610767565b61031461039c366004611e72565b610911565b6103146103af366004611e9c565b610a27565b6103586103c2366004611f07565b610a8b565b610314610d32565b6103586103dd366004611e1d565b60076020526000908152604090205460ff1681565b610358610400366004611fb2565b60066020526000908152604090205460ff1681565b610314610423366004611e1d565b610d44565b61043b610436366004611e1d565b610dc4565b604080519586526020860194909452928401919091526060830152608082015260a00161026b565b6000546001600160a01b0316610329565b610314610482366004611e72565b610e46565b61043b610495366004611e1d565b60046020819052600091825260409091208054600182015460028301546003840154939094015491939092909185565b6102f360085481565b6104e16104dc366004611e3f565b610eba565b60405161026b9190600060a0820190508251825260208301516020830152604083015160408301526060830151151560608301526080830151608083015292915050565b610358610533366004611e1d565b6001600160a01b031660009081526007602052604090205460ff1690565b61031461055f366004611fd9565b610f57565b610314610572366004612010565b610fe0565b610358610585366004612043565b6111b1565b600b54610329906001600160a01b031681565b6103146105ab366004612085565b61147c565b6102f3611f4081565b6102f361271081565b6103146105d0366004611e1d565b6117ca565b6103146105e3366004611e1d565b6118d1565b6102f36105f6366004611e3f565b600560209081526000928352604080842090915290825290205481565b6106456040518060a0016040528060008152602001600081526020016000815260200160008152602001600081525090565b506001600160a01b0316600090815260046020818152604092839020835160a0810185528154815260018201549281019290925260028101549382019390935260038301546060820152910154608082015290565b6106a2611947565b6001600160a01b0381166106f65760405162461bcd60e51b8152602060048201526016602482015275496e76616c6964207369676e6572206164647265737360501b60448201526064015b60405180910390fd5b600b80546001600160a01b0319166001600160a01b0392909216919091179055565b610720611947565b6107286119a1565b565b610732611947565b6107286119f3565b6001600160a01b038083166000908152600560209081526040808320938516835292905220545b92915050565b61076f611a30565b816001600160a01b0381166107965760405162461bcd60e51b81526004016106ed906120c1565b6001600160a01b0383166000908152600360209081526040808320338452909152902080548311156107ff5760405162461bcd60e51b8152602060048201526012602482015271496e73756666696369656e74207374616b6560701b60448201526064016106ed565b6002810154156108515760405162461bcd60e51b815260206004820152601960248201527f416374697665207574696c697a6174696f6e206578697374730000000000000060448201526064016106ed565b828160000160008282546108659190612106565b909155505080546000036108805760038101805460ff191690555b6001600160a01b038416600090815260046020526040812080548592906108a8908490612106565b909155506108c290506001600160a01b0385163385611a89565b6040518381526001600160a01b0385169033907fc970f16cd3ec5b32f311b9501d3274f497db81bb41ef2937fad509e835bbd2519060200160405180910390a3505061090d60018055565b5050565b610919611947565b816001600160a01b0381166109405760405162461bcd60e51b81526004016106ed906120c1565b6127108211156109825760405162461bcd60e51b815260206004820152600d60248201526c0a4c2e8ca40e8dede40d0d2ced609b1b60448201526064016106ed565b600082116109c15760405162461bcd60e51b815260206004820152600c60248201526b5261746520746f6f206c6f7760a01b60448201526064016106ed565b6001600160a01b0383166000818152600460208181526040928390209182018054908790558351818152918201879052919391927fa4a321397ec5243a3305ddb3ec4421e6c6f07978bfb2ea707b3ef0ef5cb96bc8910160405180910390a25050505050565b610a2f611947565b6103e8610a3c8284612119565b1115610a805760405162461bcd60e51b81526020600482015260136024820152720a8dee8c2d840cccacae640e8dede40d0d2ced606b1b60448201526064016106ed565b600891909155600955565b3360009081526007602052604081205460ff16610aba5760405162461bcd60e51b81526004016106ed9061212c565b610ac2611a30565b6001600160a01b038816610b0b5760405162461bcd60e51b815260206004820152601060248201526f24b73b30b634b210383937bb34b232b960811b60448201526064016106ed565b60008611610b4c5760405162461bcd60e51b815260206004820152600e60248201526d125b9d985b1a5908185b5bdd5b9d60921b60448201526064016106ed565b604080516001600160a01b03808c1660208301528a16918101919091526060810187905242608082015260009060a00160408051601f1981840301815291815281516020928301206000818152600690935291205490915060ff1615610bf45760405162461bcd60e51b815260206004820152601760248201527f436c61696d20616c72656164792070726f63657373656400000000000000000060448201526064016106ed565b6001600160a01b03881660009081526004602052604090208054881115610c5d5760405162461bcd60e51b815260206004820152601760248201527f496e73756666696369656e7420706f6f6c2066756e647300000000000000000060448201526064016106ed565b6000828152600660205260409020805460ff19166001179055610c8a6001600160a01b038a168b8a611a89565b87816001016000828254610c9e9190612119565b909155505080546001820154610cb7906127109061216e565b610cc19190612185565b8160030181905550896001600160a01b03168b6001600160a01b0316837fd24740e9afa52235422c27fe63847aa3f8805a553c7f17af5d53ee2fe418443c8b604051610d0f91815260200190565b60405180910390a4600192505050610d2660018055565b98975050505050505050565b610d3a611947565b6107286000611aec565b610d4c611947565b6001600160a01b038116610da25760405162461bcd60e51b815260206004820152601760248201527f496e76616c696420666163746f7279206164647265737300000000000000000060448201526064016106ed565b600a80546001600160a01b0319166001600160a01b0392909216919091179055565b6001600160a01b0381166000908152600460208181526040808420815160a0810183528154808252600183015494820185905260028301549382019390935260038201546060820181905291909401546080850181905291949293909290848611610e30576000610e3a565b610e3a8587612106565b91505091939590929450565b610e4e611947565b6001600160a01b038216610e945760405162461bcd60e51b815260206004820152600d60248201526c24b73b30b634b2103a37b5b2b760991b60448201526064016106ed565b61090d610ea96000546001600160a01b031690565b6001600160a01b0384169083611a89565b610eee6040518060a00160405280600081526020016000815260200160008152602001600015158152602001600081525090565b506001600160a01b03918216600090815260036020818152604080842094909516835292835290839020835160a0810185528154815260018201549381019390935260028101549383019390935282015460ff1615156060820152600490910154608082015290565b610f5f611947565b6001600160a01b038216610fb55760405162461bcd60e51b815260206004820152601c60248201527f496e76616c696420737562736372697074696f6e20616464726573730000000060448201526064016106ed565b6001600160a01b03919091166000908152600760205260409020805460ff1916911515919091179055565b610fe8611a30565b610ff0611b3c565b826001600160a01b0381166110175760405162461bcd60e51b81526004016106ed906120c1565b6000831161105c5760405162461bcd60e51b81526020600482015260126024820152710416d6f756e74206d757374206265203e20360741b60448201526064016106ed565b828210156110ac5760405162461bcd60e51b815260206004820152601760248201527f496e76616c6964207574696c697a6174696f6e2063617000000000000000000060448201526064016106ed565b6110c16001600160a01b038516333086611b82565b6001600160a01b038416600090815260036020908152604080832033845290915281208054909185918391906110f8908490612119565b9091555050600180820184905560038201805460ff191690911790556001600160a01b0385166000908152600460205260408120805490918691839190611140908490612119565b9091555050600481015460000361115a57611f4060048201555b60408051868152602081018690526001600160a01b0388169133917fef7c8dfef14cbefdf829b8f066b068b677992411137321d64b3ed4538c2b3637910160405180910390a35050506111ac60018055565b505050565b3360009081526007602052604081205460ff166111e05760405162461bcd60e51b81526004016106ed9061212c565b6111e8611a30565b6001600160a01b03851661122d5760405162461bcd60e51b815260206004820152600c60248201526b24b73b30b634b2103ab9b2b960a11b60448201526064016106ed565b6000831161126e5760405162461bcd60e51b815260206004820152600e60248201526d125b9d985b1a5908185b5bdd5b9d60921b60448201526064016106ed565b6001600160a01b038086166000908152600560209081526040808320938816835292905220548311156112d75760405162461bcd60e51b8152602060048201526011602482015270115e18d959591cc81d5cd95c881919589d607a1b60448201526064016106ed565b6112f833306112e68587612119565b6001600160a01b038816929190611b82565b6001600160a01b0380861660009081526005602090815260408083209388168352929052908120805485929061132f908490612106565b90915550506001600160a01b038416600090815260046020526040812060018101805491928692611361908490612106565b90915550508054611373576000611391565b80546001820154611387906127109061216e565b6113919190612185565b6003820155600854600090612710906113aa908661216e565b6113b49190612185565b90506000612710600954866113c9919061216e565b6113d39190612185565b9050818360020160008282546113e99190612119565b9091555050801561140e57600b5461140e906001600160a01b03898116911683611a89565b866001600160a01b0316886001600160a01b03167fca23425fae8e682140fe5ab01998abe678f3b7b02d9afd3833634b5da4d2a1c4888860405161145c929190918252602082015260400190565b60405180910390a36001935050505061147460018055565b949350505050565b816001600160a01b0381166114a35760405162461bcd60e51b81526004016106ed906120c1565b6001600160a01b0384166114f05760405162461bcd60e51b8152602060048201526014602482015273496e76616c69642075736572206164647265737360601b60448201526064016106ed565b600082116115355760405162461bcd60e51b81526020600482015260126024820152710416d6f756e74206d757374206265203e20360741b60448201526064016106ed565b6001600160a01b03831660009081526003602081815260408084203385529091529091209081015460ff166115a55760405162461bcd60e51b8152602060048201526016602482015275556e646572777269746572206e6f742061637469766560501b60448201526064016106ed565b80600101548382600201546115ba9190612119565b11156116085760405162461bcd60e51b815260206004820152601760248201527f45786365656473207574696c697a6174696f6e2063617000000000000000000060448201526064016106ed565b6001600160a01b0384166000908152600460208190526040909120908101548154611633919061216e565b6127108583600101546116469190612119565b611650919061216e565b111561169e5760405162461bcd60e51b815260206004820152601e60248201527f4578636565647320706f6f6c207574696c697a6174696f6e206c696d6974000060448201526064016106ed565b6001600160a01b038087166000908152600560209081526040808320938916835292905290812080548692906116d5908490612119565b92505081905550838260020160008282546116f09190612119565b925050819055508381600101600082825461170b9190612119565b909155505080546001820154611724906127109061216e565b61172e9190612185565b600382015560405184815233906001600160a01b0387811691908916907fa7d8946bc0ac3f6cd91b3011e471059e048a67c3b3a48eb35da52b810e3d68139060200160405180910390a460038101546040805182815260208101929092526001600160a01b038716917fa4a321397ec5243a3305ddb3ec4421e6c6f07978bfb2ea707b3ef0ef5cb96bc8910160405180910390a2505050505050565b6117d2611a30565b806001600160a01b0381166117f95760405162461bcd60e51b81526004016106ed906120c1565b6001600160a01b0382166000908152600360209081526040808320338452909152902060048101546118635760405162461bcd60e51b81526020600482015260136024820152724e6f207265776172647320746f20636c61696d60681b60448201526064016106ed565b60048101805460009091556118826001600160a01b0385163383611a89565b6040518181526001600160a01b0385169033907f92d8e67e11e35152e7b525077fc4cf66393423d128ce3b803453b22533c576419060200160405180910390a35050506118ce60018055565b50565b6118d9611947565b6001600160a01b03811661193e5760405162461bcd60e51b815260206004820152602660248201527f4f776e61626c653a206e6577206f776e657220697320746865207a65726f206160448201526564647265737360d01b60648201526084016106ed565b6118ce81611aec565b6000546001600160a01b031633146107285760405162461bcd60e51b815260206004820181905260248201527f4f776e61626c653a2063616c6c6572206973206e6f7420746865206f776e657260448201526064016106ed565b6119a9611bc0565b6002805460ff191690557f5db9ee0a495bf2e6ff9c91a7834c1ba4fdd244a5e8aa4e537bd38aeae4b073aa335b6040516001600160a01b03909116815260200160405180910390a1565b6119fb611b3c565b6002805460ff191660011790557f62e78cea01bee320cd4e420270b5ea74000d11b0c9f74754ebdbfc544b05a2586119d63390565b600260015403611a825760405162461bcd60e51b815260206004820152601f60248201527f5265656e7472616e637947756172643a207265656e7472616e742063616c6c0060448201526064016106ed565b6002600155565b6040516001600160a01b0383166024820152604481018290526111ac90849063a9059cbb60e01b906064015b60408051601f198184030181529190526020810180516001600160e01b03166001600160e01b031990931692909217909152611c09565b600080546001600160a01b038381166001600160a01b0319831681178455604051919092169283917f8be0079c531659141344cd1fd0a4f28419497f9722a3daafe3b4186f6b6457e09190a35050565b60025460ff16156107285760405162461bcd60e51b815260206004820152601060248201526f14185d5cd8589b194e881c185d5cd95960821b60448201526064016106ed565b6040516001600160a01b0380851660248301528316604482015260648101829052611bba9085906323b872dd60e01b90608401611ab5565b50505050565b60025460ff166107285760405162461bcd60e51b815260206004820152601460248201527314185d5cd8589b194e881b9bdd081c185d5cd95960621b60448201526064016106ed565b6000611c5e826040518060400160405280602081526020017f5361666545524332303a206c6f772d6c6576656c2063616c6c206661696c6564815250856001600160a01b0316611cde9092919063ffffffff16565b9050805160001480611c7f575080806020019051810190611c7f91906121a7565b6111ac5760405162461bcd60e51b815260206004820152602a60248201527f5361666545524332303a204552433230206f7065726174696f6e20646964206e6044820152691bdd081cdd58d8d9595960b21b60648201526084016106ed565b6060611474848460008585600080866001600160a01b03168587604051611d0591906121e8565b60006040518083038185875af1925050503d8060008114611d42576040519150601f19603f3d011682016040523d82523d6000602084013e611d47565b606091505b5091509150611d5887838387611d63565b979650505050505050565b60608315611dd2578251600003611dcb576001600160a01b0385163b611dcb5760405162461bcd60e51b815260206004820152601d60248201527f416464726573733a2063616c6c20746f206e6f6e2d636f6e747261637400000060448201526064016106ed565b5081611474565b6114748383815115611de75781518083602001fd5b8060405162461bcd60e51b81526004016106ed9190612204565b80356001600160a01b0381168114611e1857600080fd5b919050565b600060208284031215611e2f57600080fd5b611e3882611e01565b9392505050565b60008060408385031215611e5257600080fd5b611e5b83611e01565b9150611e6960208401611e01565b90509250929050565b60008060408385031215611e8557600080fd5b611e8e83611e01565b946020939093013593505050565b60008060408385031215611eaf57600080fd5b50508035926020909101359150565b60008083601f840112611ed057600080fd5b50813567ffffffffffffffff811115611ee857600080fd5b602083019150836020828501011115611f0057600080fd5b9250929050565b60008060008060008060008060c0898b031215611f2357600080fd5b611f2c89611e01565b9750611f3a60208a01611e01565b9650611f4860408a01611e01565b955060608901359450608089013567ffffffffffffffff80821115611f6c57600080fd5b611f788c838d01611ebe565b909650945060a08b0135915080821115611f9157600080fd5b50611f9e8b828c01611ebe565b999c989b5096995094979396929594505050565b600060208284031215611fc457600080fd5b5035919050565b80151581146118ce57600080fd5b60008060408385031215611fec57600080fd5b611ff583611e01565b9150602083013561200581611fcb565b809150509250929050565b60008060006060848603121561202557600080fd5b61202e84611e01565b95602085013595506040909401359392505050565b6000806000806080858703121561205957600080fd5b61206285611e01565b935061207060208601611e01565b93969395505050506040820135916060013590565b60008060006060848603121561209a57600080fd5b6120a384611e01565b92506120b160208501611e01565b9150604084013590509250925092565b602080825260159082015274496e76616c696420746f6b656e206164647265737360581b604082015260600190565b634e487b7160e01b600052601160045260246000fd5b81810381811115610761576107616120f0565b80820180821115610761576107616120f0565b60208082526022908201527f556e617574686f72697a656420737562736372697074696f6e20636f6e74726160408201526118dd60f21b606082015260800190565b8082028115828204841417610761576107616120f0565b6000826121a257634e487b7160e01b600052601260045260246000fd5b500490565b6000602082840312156121b957600080fd5b8151611e3881611fcb565b60005b838110156121df5781810151838201526020016121c7565b50506000910152565b600082516121fa8184602087016121c4565b9190910192915050565b60208152600082518060208401526122238160408501602087016121c4565b601f01601f1916919091016040019291505056fea26469706673582212207ba5dcb799d832ea22803f091d0c4ac9b15786c27c2170bdaa476c86c076cf0b64736f6c63430008130033",
  "linkReferences": {},
  "deployedLinkReferences": {}
}